:100000000C9435000C945D000C945D000C945D0024
:100010000C945D000C945D000C945D000C945D00EC
:100020000C945D000C945D000C945D000C945D00DC
:100030000C945D000C945D000C945D000C945D00CC
:100040000C94C2010C945D000C9432020C940C02CE
:100050000C945D000C945D000C945D000C945D00AC
:100060000C945D000C945D00430311241FBECFEF80
:10007000D8E0DEBFCDBF11E0A0E0B1E0E0E8F9E0FC
:1000800002C005900D92AC31B107D9F721E0ACE187
:10009000B1E001C01D92A63CB207E1F710E0C5E354
:1000A000D0E004C02197FE010E949203C433D1071F
:1000B000C9F70E9464020C94BE040C940000CF9215
:1000C000DF92EF92FF920F931F93CF93DF936C0118
:1000D0007A018B01C0E0D0E0CE15DF0581F0D801B8
:1000E0006D918D01D601ED91FC910190F081E02D93
:1000F000C6010995892B11F02196EECF7E01C7012B
:10010000DF91CF911F910F91FF90EF90DF90CF90F3
:100110000895089580E090E00895FC01538D448D8A
:10012000252F30E0842F90E0821B930B541710F0A2
:10013000CF96089501970895FC01918D828D9817AF
:1001400061F0828DDF01A80FB11D5D968C91928DBB
:100150009F5F9F73928F90E008958FEF9FEF0895B8
:10016000FC01918D828D981731F0828DE80FF11D81
:10017000858D90E008958FEF9FEF0895FC01918D9C
:10018000228D892F90E0805C9F4F821B91098F7395
:100190009927089585E291E00E94BE0021E0892B15
:1001A00009F420E0822F0895FC01848DDF01A80F5F
:1001B000B11DA35ABF4F2C91848D90E001968F738F
:1001C0009927848FA689B7892C93A089B1898C91AE
:1001D000837080648C93938D848D981306C00288FD
:1001E000F389E02D80818F7D80830895EF92FF92C7
:1001F0000F931F93CF93DF93EC0181E0888F9B8D4A
:100200008C8D981305C0E889F989808185FD26C009
:10021000F62E0B8D10E00F5F1F4F0F731127E02E8E
:100220008C8DE8120CC00FB607FCFACFE889F9896B
:10023000808185FFF5CFCE010E94D400F1CF8B8D58
:10024000FE01E80FF11DE35AFF4FF0829FB7F894CB
:100250000B8FEA89FB89808180620AC09FB7F8947E
:10026000EE89FF896083E889F989808183708064E1
:1002700080839FBF81E090E0DF91CF911F910F912C
:10028000FF90EF900895CF93DF93EC01888D882342
:10029000C9F0EA89FB89808185FD05C0A889B989F3
:1002A0008C9186FD0FC00FB607FCF5CF808185FFCE
:1002B000F2CFA889B9898C9185FFEDCFCE010E943C
:1002C000D400E7CFDF91CF91089580E090E0892BB3
:1002D00029F00E94CA0081110C94000008958F92A9
:1002E0009F92AF92BF920F931F93CF93DF93CDB79F
:1002F000DEB7A1970FB6F894DEBF0FBECDBF19A22F
:10030000423008F44AE08E010F5D1F4F842E912C7D
:10031000A12CB12CA50194010E947003E62FB90114
:10032000CA0101501109EA3014F4E05D01C0E95C32
:10033000D801EC93232B242B252B61F701151105F4
:1003400071F0F80101900020E9F73197AF01401BEF
:10035000510BB80185E291E00E945F0002C080E08D
:1003600090E0A1960FB6F894DEBF0FBECDBFDF912F
:10037000CF911F910F91BF90AF909F908F90089554
:100380000E94B9041F920F920FB60F9211242F935F
:100390003F938F939F93AF93BF938091210190914F
:1003A0002201A0912301B09124013091200123E08A
:1003B000230F2D3720F40196A11DB11D05C026E89D
:1003C000230F0296A11DB11D2093200180932101CE
:1003D00090932201A0932301B093240180911C01EA
:1003E00090911D01A0911E01B0911F010196A11DC8
:1003F000B11D80931C0190931D01A0931E01B09329
:100400001F01BF91AF919F918F913F912F910F90BD
:100410000FBE0F901F9018951F920F920FB60F925C
:1004200011242F933F934F935F936F937F938F93F9
:100430009F93AF93BF93EF93FF9385E291E00E9468
:10044000D400FF91EF91BF91AF919F918F917F91D8
:100450006F915F914F913F912F910F900FBE0F9031
:100460001F9018951F920F920FB60F9211242F9381
:100470008F939F93EF93FF93E0913501F0913601B5
:100480008081E0913B01F0913C0182FD12C090819E
:1004900080913E018F5F8F7320913F01821751F051
:1004A000E0913E01F0E0EB5DFE4F958F80933E01C1
:1004B00001C08081FF91EF919F918F912F910F90BB
:1004C0000FBE0F901F901895CF93DF93CDB7DEB777
:1004D000CA54D1090FB6F894DEBF0FBECDBF7894D1
:1004E00084B5826084BD84B5816084BD85B5826039
:1004F00085BD85B5816085BD80916E0081608093EA
:100500006E00109281008091810082608093810052
:100510008091810081608093810080918000816062
:10052000809380008091B10084608093B1008091BD
:10053000B00081608093B00080917A0084608093E5
:100540007A0080917A00826080937A0080917A00AC
:10055000816080937A0080917A00806880937A002D
:100560001092C100E0913501F091360182E0808364
:10057000E0913101F09132011082E0913301F0916C
:1005800034018FEC808310923D01E0913901F091AC
:100590003A0186E08083E0913701F0913801808153
:1005A00080618083E0913701F0913801808188601B
:1005B0008083E0913701F0913801808180688083E9
:1005C000E0913701F091380180818F7D808313E2C3
:1005D000FE01B496DF01812F1D928A95E9F780E133
:1005E000C82ED12CE12CF12CC8A6D9A6EAA6FBA6D0
:1005F000DE011196812F01900D928A95E1F783E239
:1006000090E00E949803CD82DE82EF82F886FE01A0
:100610003196DC0101900D921A95E1F72B961CAEF4
:100620001DAE1EAE1FAE2B97DC0114968D919C91D2
:10063000159729969FAF8EAF29972B96CCACDDAC42
:10064000EEACFFAC2B97F7FE0EC06DE285E291E0B9
:100650000E94F60066277727CB016C197D098E0969
:100660009F094AE003C04AE0C701B6010E946F013A
:1006700042E050E068E171E085E291E00E945F00B5
:100680000E946501FDCFE5E2F1E01382128288EE5F
:1006900093E0A0E0B0E084839583A683B7838AE0EB
:1006A00091E09183808385EC90E09587848784EC4A
:1006B00090E09787868780EC90E0918B808B81EC2F
:1006C00090E0938B828B82EC90E0958B848B86EC10
:1006D00090E0978B868B118E128E138E148E089558
:1006E000A1E21A2EAA1BBB1BFD010DC0AA1FBB1F36
:1006F000EE1FFF1FA217B307E407F50720F0A21BA8
:10070000B30BE40BF50B661F771F881F991F1A9414
:1007100069F760957095809590959B01AC01BD013E
:10072000CF010895EE0FFF1F0590F491E02D09947D
:100730000F931F93CF93DF938230910510F482E0E3
:1007400090E0E091C401F091C50120E030E0A0E02C
:10075000B0E0309719F1408151810281138148172F
:100760005907C8F08417950769F4109731F012966D
:100770000C93129713961C9327C00093C4011093F7
:10078000C50122C02115310519F04217530718F48D
:100790009A01BD01EF01DF01F801DBCF2115310521
:1007A000F9F0281B390B2430310580F48A819B81B4
:1007B0006115710521F0FB019383828304C090933E
:1007C000C5018093C401FE01329644C0FE01E20FD0
:1007D000F31F8193919322503109398328833AC0C2
:1007E0002091C2013091C301232B41F420910201D9
:1007F000309103013093C3012093C2012091000185
:10080000309101012115310541F42DB73EB74091DA
:10081000040150910501241B350BE091C201F091B8
:10082000C301E217F307A0F42E1B3F0B281739076B
:1008300078F0AC014E5F5F4F2417350748F04E0F3C
:100840005F1F5093C3014093C2018193919302C0F3
:10085000E0E0F0E0CF01DF91CF911F910F9108957B
:10086000CF93DF93009709F481C0FC013297138284
:100870001282A091C401B091C501109781F420812A
:100880003181820F931F2091C2013091C30128173B
:10089000390751F5F093C301E093C20167C0ED0140
:1008A00020E030E0CE17DF0740F44A815B819E01F3
:1008B00041155105F1F0EA01F5CFD383C2834081A0
:1008C0005181840F951FC817D90759F488819981E0
:1008D000840F951F0296918380838A819B819383E5
:1008E00082832115310529F4F093C501E093C401F9
:1008F0003DC0E901FB83EA8349915991C40FD51F9B
:10090000EC17FD0761F480819181840F951F029699
:10091000E90199838883828193819B838A83E0E0C4
:10092000F0E012968D919C911397009719F0FD01BC
:10093000DC01F7CF8D919C9111979D012E5F3F4F68
:10094000820F931F2091C2013091C30128173907EC
:1009500069F4309729F41092C5011092C40102C0C5
:1009600013821282B093C301A093C201DF91CF9191
:10097000089581E090E0F8940C94BE04F894FFCFC1
:100980000000C601800000000000F6005F008D003E
:0C0990004301BE009C00B0000D0A0000F6
:00000001FF
