:100000000C9435000C945D000C945D000C945D0024
:100010000C945D000C945D000C945D000C945D00EC
:100020000C945D000C945D000C945D000C945D00DC
:100030000C945D000C945D000C945D000C945D00CC
:100040000C9496010C945D000C9406020C94E00153
:100050000C945D000C945D000C945D000C945D00AC
:100060000C945D000C945D00060311241FBECFEFBD
:10007000D8E0DEBFCDBF11E0A0E0B1E0E2ECF8E0F7
:1000800002C005900D92A032B107D9F721E0A0E29D
:10009000B1E001C01D92AC3CB207E1F710E0C5E34E
:1000A000D0E004C02197FE010E943303C433D1077E
:1000B000C9F70E9438020C945F040C9400003FB70B
:1000C000F8948091C4019091C501A091C601B091AE
:1000D000C70126B5A89B05C02F3F19F00196A11DA9
:1000E000B11D3FBFBA2FA92F982F8827820F911DCE
:1000F000A11DB11DBC01CD0142E0660F771F881F15
:10010000991F4A95D1F70895CF92DF92EF92FF920F
:100110000F931F93CF93DF936C017A018B01C0E0A3
:10012000D0E0CE15DF0581F0D8016D918D01D601AB
:10013000ED91FC910190F081E02DC6010995892B8C
:1001400011F02196EECF7E01C701DF91CF911F9173
:100150000F91FF90EF90DF90CF900895089580E089
:1001600090E00895FC01538D448D252F30E0842FBD
:1001700090E0821B930B541710F0CF9608950197CF
:100180000895FC01918D828D981761F0828DDF01B9
:10019000A80FB11D5D968C91928D9F5F9F73928F7A
:1001A00090E008958FEF9FEF0895FC01918D828D6F
:1001B000981731F0828DE80FF11D858D90E008953C
:1001C0008FEF9FEF0895FC01918D228D892F90E094
:1001D000805C9F4F821B91098F739927089580E25D
:1001E00091E00E94E30021E0892B09F420E0822FB6
:1001F0000895FC01848DDF01A80FB11DA35ABF4FE4
:100200002C91848D90E001968F739927848FA68915
:10021000B7892C93A089B1898C91837080648C9369
:10022000938D848D981306C00288F389E02D808118
:100230008F7D80830895EF92FF920F931F93CF934A
:10024000DF93EC0181E0888F9B8D8C8D981305C026
:10025000E889F989808185FD26C0F62E0B8D10E096
:100260000F5F1F4F0F731127E02E8C8DE8120CC00B
:100270000FB607FCFACFE889F989808185FFF5CFB1
:10028000CE010E94F900F1CF8B8DFE01E80FF11D28
:10029000E35AFF4FF0829FB7F8940B8FEA89FB89EE
:1002A000808180620AC09FB7F894EE89FF896083DD
:1002B000E889F98980818370806480839FBF81E0B1
:1002C00090E0DF91CF911F910F91FF90EF900895F3
:1002D000CF93DF93EC01888D8823C9F0EA89FB89ED
:1002E000808185FD05C0A889B9898C9186FD0FC0E4
:1002F0000FB607FCF5CF808185FFF2CFA889B989B9
:100300008C9185FFEDCFCE010E94F900E7CFDF9100
:10031000CF91089580E090E0892B29F00E94EF00B2
:1003200081110C94000008950E945A041F920F92AC
:100330000FB60F9211242F933F938F939F93AF93F8
:10034000BF938091C0019091C101A091C201B09171
:10035000C3013091BF0123E0230F2D3720F4019614
:10036000A11DB11D05C026E8230F0296A11DB11DD8
:100370002093BF018093C0019093C101A093C2015B
:10038000B093C3018091C4019091C501A091C601B1
:10039000B091C7010196A11DB11D8093C401909336
:1003A000C501A093C601B093C701BF91AF919F91C2
:1003B0008F913F912F910F900FBE0F901F90189526
:1003C0001F920F920FB60F9211242F933F934F93CA
:1003D0005F936F937F938F939F93AF93BF93EF93AD
:1003E000FF9380E291E00E94F900FF91EF91BF91AD
:1003F000AF919F918F917F916F915F914F913F91BD
:100400002F910F900FBE0F901F9018951F920F9273
:100410000FB60F9211242F938F939F93EF93FF9317
:10042000E0913001F09131018081E0913601F0914D
:10043000370182FD12C09081809139018F5F8F73E7
:1004400020913A01821751F0E0913901F0E0E05E2D
:10045000FE4F958F8093390101C08081FF91EF910C
:100460009F918F912F910F900FBE0F901F90189515
:10047000789484B5826084BD84B5816084BD85B57F
:10048000826085BD85B5816085BD80916E0081608B
:1004900080936E0010928100809181008260809331
:1004A0008100809181008160809381008091800033
:1004B0008160809380008091B10084608093B1005E
:1004C0008091B00081608093B00080917A00846058
:1004D00080937A0080917A00826080937A00809184
:1004E0007A00816080937A0080917A00806880939E
:1004F0007A001092C100E0913001F091310182E068
:100500008083E0912C01F0912D011082E0912E0169
:10051000F0912F018FEC808310923801E09134012B
:10052000F091350186E08083E0913201F091330152
:10053000808180618083E0913201F091330180817C
:1005400088608083E0913201F0913301808180687E
:100550008083E0913201F091330180818F7D80832F
:1005600084E090E00E943903FC0180E291E09183F5
:1005700080838FEF83831282F093BE01E093BD01ED
:10058000E091BD01F091BE01C081D181E881F98186
:100590000280F381E02D44E050E068E171E0CE019B
:1005A0000995E881F9810280F381E02D42E050E075
:1005B0006DE171E0CE0109950E945F006B017C0145
:1005C00088EE882E83E0982EA12CB12C0E945F002B
:1005D000DC01CB018C199D09AE09BF09883E93400F
:1005E000A105B10598F321E0821A9108A108B1088C
:1005F00088EEC80E83E0D81EE11CF11C8114910422
:10060000A104B10419F70E948A01BACFE0E2F1E037
:100610001382128288EE93E0A0E0B0E08483958399
:10062000A683B7838AE091E09183808385EC90E094
:100630009587848784EC90E09787868780EC90E0AC
:10064000918B808B81EC90E0938B828B82EC90E09D
:10065000958B848B86EC90E0978B868B118E128E17
:10066000138E148E0895EE0FFF1F0590F491E02D68
:1006700009940F931F93CF93DF938230910510F469
:1006800082E090E0E091CA01F091CB0120E030E0FF
:10069000A0E0B0E0309719F14081518102811381CF
:1006A00048175907C8F08417950769F4109731F077
:1006B00012960C93129713961C9327C00093CA01AD
:1006C0001093CB0122C02115310519F042175307B1
:1006D00018F49A01BD01EF01DF01F801DBCF21150C
:1006E0003105F9F0281B390B2430310580F48A815B
:1006F0009B816115710521F0FB019383828304C006
:100700009093CB018093CA01FE01329644C0FE0152
:10071000E20FF31F8193919322503109398328838B
:100720003AC02091C8013091C901232B41F4209196
:100730000201309103013093C9012093C801209137
:100740000001309101012115310541F42DB73EB76B
:100750004091040150910501241B350BE091C80123
:10076000F091C901E217F307A0F42E1B3F0B2817E5
:10077000390778F0AC014E5F5F4F2417350748F01A
:100780004E0F5F1F5093C9014093C801819391930D
:1007900002C0E0E0F0E0CF01DF91CF911F910F9117
:1007A0000895CF93DF93009709F481C0FC0132973D
:1007B00013821282A091CA01B091CB01109781F4EB
:1007C00020813181820F931F2091C8013091C9018E
:1007D0002817390751F5F093C901E093C80167C0A4
:1007E000ED0120E030E0CE17DF0740F44A815B8165
:1007F0009E0141155105F1F0EA01F5CFD383C28383
:1008000040815181840F951FC817D90759F48881F9
:100810009981840F951F0296918380838A819B81A1
:10082000938382832115310529F4F093CB01E09362
:10083000CA013DC0E901FB83EA8349915991C40F84
:10084000D51FEC17FD0761F480819181840F951FFE
:100850000296E90199838883828193819B838A83AD
:10086000E0E0F0E012968D919C911397009719F0BB
:10087000FD01DC01F7CF8D919C9111979D012E5FB9
:100880003F4F820F931F2091C8013091C901281753
:10089000390769F4309729F41092CB011092CA01FC
:1008A00002C013821282B093C901A093C801DF91E4
:1008B000CF91089581E090E0F8940C945F04F8944F
:0208C000FFCF68
:1008C2000000CC018000000000001B018400B20087
:1008D2006801E300C100D50074657374000D0A005D
:00000001FF
